:020000000C945E
:1000020001010C9400000C9400000C9400000C946C
:1000120000000C9400000C9400000C9400000C945E
:1000220000000C9400000C9400000C9400000C944E
:1000320000000C9400000C9400000C9400000C943E
:1000420000000C9400000C9400000C9400000C942E
:1000520000001027E80364000A00010000100001FC
:1000620010000100000000000000000020414234A6
:10007200E942DA3731408F4299420000BE42002005
:1000820030383C00450047004D00420041495220B3
:100092005155414C49545920424144212100494E75
:1000A20054525544455220414C455254004C4F4104
:1000B200442D44205455524E4544204F4E004C4F3F
:1000C20041442D44205455524E4544204F4646004B
:1000D2004C4F41442D43205455524E4544204F4EDF
:1000E200004C4F41442D43205455524E4544204F1D
:1000F2004646004C4F41442D42205455524E4544F1
:10010200204F4E004C4F41442D42205455524E45F3
:1001120044204F4646004C4F41442D4120545552F5
:100122004E4544204F4E004C4F41442D41205455E2
:10013200524E4544204F4646004252414320554EBE
:1001420049564552534954592E00486F6D65204D0A
:100152006F6E69746F72696E670053797374656D3F
:10016200004545452D3336365F47370054454D50DF
:100172003A202043207C2048554D3A20202025005B
:10018200412E513A20202020207C20412E513A201D
:1001920020202000552E50463A202020207C204C42
:1001A2004F434B3A202020004C005500464952450F
:1001B2002048415A41524421210080C001002D4E65
:1001C200414E00494E46000006000600660004004B
:1001D20071026C0004007502700004007902740060
:1001E20004007D027800040085027C00050089027B
:1001F200800002009202BC0101009702BE010000D1
:10020200F894EE27ECBBF1E0FBBFEBBFE5BF8DE05E
:10021200A2E0BB27ED938A95E9F780E098E0A0E69B
:10022200ED930197E9F7EAECF1E08591959100975A
:1002320061F0A591B59105901590BF01F00105906F
:100242000D920197E1F7FB01F0CFEFE5EDBFE8E09A
:10025200EEBFC0E6D2E00C948D03AA24BB24662430
:100262007724EAE0F0E06E167F0674F4989BFECFE6
:10027200E0E0E2BF999BFECFE2B7F0E0AE0EBF1E18
:10028200F30131963F01EDCFD501EAE0F0E05AD615
:100292005F01E1D4ADEBB7E386E898E395D7A0E040
:1002A200B0E084EB93E490D7A0E0B0E088E492E47D
:1002B2008BD7A7EAB7EE8EE89CE386D7DF01CB01A6
:1002C20091D4A0E0B0E088EC92E47ED7E093810282
:1002D200F093820260938302709384020895BDDFDB
:1002E200AA98AB98AC98AD98E0918502F0918602FD
:1002F2006091870270918802A0918102B09182027E
:100302008091830290918402F1D728F4E4E0F0E036
:100312008E169F062CF0EFEFFFEFE815F90581F43A
:10032200F40131964F0105B2A9E8B2E0A80DB91D5A
:10033200EC91E029E5BBA2E3B0E0F8D78EDFD4CFA1
:10034200A2E3B0E061C128971A930A938D01002EAF
:10035200012A11F4E0E4E7B9E1E0F0E0E017F10787
:1003620011F4E1E4E7B9E2E0F0E0E017F10711F49B
:10037200E2E4E7B9E3E0F0E0E017F10711F4E3E4C7
:10038200E7B9E7B1AE2FE02FEF70EA2BE7B9369A63
:10039200349BFECF85E38A95F1F7E4B1F0E061D4B6
:1003A20065D4E5B1FE2FE0E05CD465D469D46DD4A8
:1003B200EA0FFB1F681F791F6DD40C94E904A3E0B8
:1003C200B0E0C1DFE0936D02F0936E0260936F02C2
:1003D2007093700265D46DD4A6D4A835E2E0BE074E
:1003E200E0E08E07E0E09E072CF4A6D4A6E8B0E099
:1003F20012D232C0A5D42CF49FD4A8E8B0E00BD21C
:100402002BC091D4AC3DE5E0BE07E0E08E07E0E012
:100412009E072CF491D4AAE8B0E0FDD11DC08CD483
:10042200ACE8B0E0F8D1D89A919AC6D1E1E0EA936B
:10043200A1E0B0D1AEE8B0E0EED175D4AB3AE5E0E0
:10044200BE07E0E08E07E0E09E072CF0A3E0B0E0FC
:100452007ADF2FD4F2CF7DD473D40CF4919808951F
:10046200A2E0B0E070DFE0936502F0936602609371
:100472006702709368021FD6DF01CB01EAE9F9E94E
:100482006CE473E4EFD6DF01CB01E0E0F0E060E47E
:100492007FE363D4E6EBF3EF6DEF7CE3E3D6A5E60F
:1004A200B2E060D465D4AF31E0E0BE07E0E08E0791
:1004B200E0E09E070CF4AE9A5BD4A233E0E0BE0704
:1004C200E0E08E07E0E09E070CF0AF9A0895CD9928
:1004D20002C0CC9901C00FC0D89A6ED1E3E0EA9372
:1004E200A1E058D1A0EAB0E096D1CD9BFECF442442
:1004F200552402D101C0D8980895A1E0B0E023DFCD
:10050200E0936902F0936A0260936B0270936C024B
:10051200D2D5DF01CB01EAEAF1EF62E070E4A2D6C4
:10052200A9E6B2E01FD40895B4990FC0C09B02C0DF
:10053200C09801C0C09A25D4C09B03C0AFEAB0E006
:1005420002C0A0ECB0E067D121D4B5990FC0C19B25
:1005520002C0C19801C0C19A14D4C19B03C0A2EDCC
:10056200B0E002C0A3EEB0E056D110D4B6990FC0ED
:10057200C29B02C0C29801C0C29A03D4C29B03C0EC
:10058200A5EFB0E002C0A6E0B1E045D1FFD3B79934
:100592000FC0C39B02C0C39801C0C39AF2D3C39BCE
:1005A20003C0A8E1B1E002C0A9E2B1E034D1EED3C8
:1005B2000895DED3A832E0E0BE07E0E08E07E0E077
:1005C2009E070CF0AE98D4D3A932E0E0BE07E0E07B
:1005D2008E07E0E09E070CF4AF980895EDD0E2E0BC
:1005E200EA93A0E0D7D0ABE3B1E015D1E2E0EA9321
:1005F200A1E0D0D0ACE4B1E00ED1D2D3ACE5B1E011
:100602000AD1D2D3A0EDB7E091D60895D5D0E0E0DB
:10061200EA93A0E0BFD0AEE6B1E0FDD0E0E0EA931D
:10062200A1E0B8D0A2E8B1E0F6D0E0E0EA93A2E01F
:10063200B1D0A6E9B1E0BFD3E3E0EA93A3E0AAD048
:10064200B3D30895E0916902F0916A02CAD3E5E05A
:10065200EA93A0E09FD0A0E6B2E0CED0E0E1EA9338
:10066200A0E098D0E0916502F0916602BAD3A0E6CC
:10067200B2E0C2D015D3D2018B2F880F880B982FEE
:10068200B5D3B9F0E2E1EA93A1E084D0A3E9B1E005
:10069200C2D0EFE0EA93A1E07DD0E0916D02F0914B
:1006A2006E029FD3A0E6B2E0A7D040906D025090B8
:1006B2006E02A1D3A0918E02B0918F02809190021E
:1006C2009091910293D369F06BD3A4E9B1E073D313
:1006D20092D3E0938E02F0938F0260939002709314
:1006E2009102CD9904C090D3AAEAB1E003C08CD3A1
:1006F200ACEAB1E090D008955FD088DFA3DF08951F
:10070200829B09C0D89A58D017D3AEEAB1E083D001
:100712008299FECF1ED30895ECEFE4BBEFE0E7BB76
:10072200EAEFE1BBE1EFEABBE7E8E6B9E5E0E3BF08
:10073200A4E180D053DF91DD69DFF6DEDEDE90DEFC
:100742003EDEC5DE36DFDCDF7DDFF7CFFFCF1A937B
:100752001A2FE2B3EF70AE2FE12FE07FEA2BE2BB5C
:100762008BE18A95F1F7939A8BE18A95F1F7939849
:100772008BE18A95F1F788C0AA93A881E8DFE88126
:10078200E295E883A881E3DF88EC90E00197F1F736
:10079200219608951A930A931A2F0A81E12FF0E005
:1007A200EE56FD4FE081E00FAE2FE6DFD02EC12ED8
:1007B2001981088123960895A2E02AD3ACE0DCDFF8
:1007C200A1E026D3E0E0CE2EDE2E08951A931A2F52
:1007D2001A3021F0E0919602DE1640F0E0E0EA9352
:1007E200C394AC2DD7DF1A3009F44EC0D394DF9AEC
:1007F200A12FC2DFDF9848C07CD39D01D9012F5FB2
:100802003F4FEC911E2FE03019F0A12FDFDFF6CF22
:1008120075D30C94FC056DD39D01F9012F5F3F4FF9
:10082200E4911E2FE03019F0A12FD0DFF6CF66D36E
:100832000C94FC051A931A2FE1B3E06FE1BB8B9A7B
:10084200D79AD69A9398DF98DE9810939602E12F62
:10085200E058E0939402E12FE054E0939502A4E182
:10086200B0E064D5D9D2D8D2D7D2A0E270DF80E985
:1008720091E00197F1F7A8E27FDFA4E07DDFA5E830
:100882007BDFA6E079DF98DF1991089573D37B812E
:100892006A81F981E88177FB770F67FD7160972F95
:1008A2009E5781F078F0983190F4AA27BB278827C9
:1008B20008948795B795A7959A95D1F7EA23FB23D4
:1008C200682305C0E8947727EE27FF2766276F770E
:1008D200769508F4606877F9A991B991899199910F
:1008E200EA17FB076807790797FB08959CD2CEDFCA
:1008F200E883F9836A837B8311F49BD27CC1EEF790
:1009020098D29CD278C136D324971A930A93BDD138
:1009120043D32CF0EFEFFFEF6FE77FEF59C094D294
:1009220024D3ADB7BEB711971F930F933BD30F914B
:100932001F91A1D1AAD1E3EFF4E065E37FE3D6D41E
:1009420030F482D2A2D1F1D396D1015010407CD2A0
:1009520075D27F936F93FF93EF9376D2A0E0B0E0CE
:1009620080E89FE3E2D3AF91BF918F919F917AD4B8
:1009720091D16FD2A6E2B2E485E69FE325D4DF01EE
:10098200CB01EEE4F1E164E570E4F9D2C7D37DD1A5
:100992001BD47F936F93FF93EF9372D1ADE4B1E1D8
:1009A20084ED9FE3BBD3AF91BF918F919F915AD4B6
:1009B2007F936F93FF93EF93F8014DD1A8E1B2E7D4
:1009C20081E39FE301D4AF91BF918F919F91ADD30A
:1009D200198108812A960895CDD228971A930A93ED
:1009E2003CD2E0E5FCEA6EEA72EC80D410F43AD232
:1009F2005CC0EA85FB856C857D85309760407040E0
:100A020011F435D252C029D2E8E1F2E761EB72E487
:100A12006DD409F008F405C0EFEFFFEF6FE77FE751
:100A220044C01BD2EBE3FAEA68EB7FE3CDD3EA875B
:100A3200FB876C877D8711D259DF06D38F010DD2D8
:100A42000AD18BD119D29BD269D324D102D2ADE67D
:100A5200BCE48CE69DE3B8D3A6EAB3EE86EE90E45E
:100A620064D313D1B1D307D10BD1A8E2BDE886EA92
:100A720091E45BD3FBD0E8D1AA81BB818C819D81BB
:100A820054D3A3EFB4E085EB9FE39ED37F936F93A0
:100A9200FF93EF93FAD0F4D041D3AF91BF918F91EE
:100AA2009F91E0D362D2D8018ED2198108812E960D
:100AB200089560D22497E5D130976040704011F4D8
:100AC200D1D129C0E3D168D254F4E5D13097604046
:100AD200704011F4CCD11FC0D9D1E2D11CC0DBD1FE
:100AE200DE0140D1A6D1E7D2DF01CB01D4D17ED144
:100AF20011F0B8D110C0C5D172D2DF01CB01D0D173
:100B0200E887F9876A877B87E881E17011F4B9D1B8
:100B120002C0B7D164D22C9608952CD224971A938E
:100B220010E0C7D1E3E8F9EF62E27EE34DD3C6D12C
:100B3200DDDEBFD124D2F2D2C1D19ED1D7D309F00A
:100B420008F407C0C0D1A0E0B0E080E09FE3C0D1CC
:100B520011E0AFD1E0E0F0E060E87EE3C7D309F056
:100B620008F403C0A6D188D1B3D1103031F0ABD193
:100B720036D2ED83FE836F837887A5D19AD124D3B1
:100B8200E983FA836B837C83A9D1A1EBB4EC86E27F
:100B920092E41AD3DF01CB01EDE1F5EE6DE272E4EE
:100BA200EED1BCD2A0D1ACE4B3E584E091E4BDD2F5
:100BB20080D10AD37F936F93FF93EF938FD1A1E1FB
:100BC200BDEE8EED9FE3B1D28ED1AEE5BBE788EAF2
:100BD2009FE3ABD2AF91BF918F919F9143D3188185
:100BE2002996089520D1EBEDFFE069EC7FE396D2E0
:100BF200DF01CB0192DF24960895BA93AA93A991BB
:100C0200B991E991F99130962AF4E095F0953196EF
:100C12006DE26D93E89480E197E20DD088EE93E067
:100C22000AD084E6992707D08AE005D06E2F10D02B
:100C320066276C9308956627E817F90720F06395F5
:100C4200E81BF90BC9F7662311F416F008956894AE
:100C5200605D6D9308956F2F660F660B762F2BD212
:100C620008956F2F660F660B762F0895EA83FB8334
:100C72006C837D830895EE83FF8368877987089567
:100C8200EA81FB816C817D810895AE81BF81888577
:100C920099850895F0DFEE81FF8168857985089551
:100CA200E0916D02F0916E0260916F02709170029C
:100CB200089501D2DF01CB01EAE9F9E96CE473E4BA
:100CC200D1D2A0917102B09172028091730290917F
:100CD20074027AD2DF01CB01E0917D02F0917E02B3
:100CE20060917F0270918002BDD23FD1E091790282
:100CF200F0917A0260917B0270917C0270D1DF01E7
:100D0200CB01D7DEA0917502B09176028091770275
:100D12009091780259D2ADE6B2E096D1ED93FD936F
:100D22006D937C930895A0916D02B0916E028091B3
:100D32006F02909170020895E5E0EA93A1E02ACD56
:100D4200F2DFA83EE3E0BE07E0E08E07E0E09E07A8
:100D52000895D89844245524CFCC11D1DFD1DF0196
:100D6200CB01089571D1ED93FD936D937C9308951A
:100D7200A0916502B091660280916702909168022B
:100D820008951ADDE2E0EA93A1E004CDACE2B1E01D
:100D9200CDD244245524B0DCEFEFFFEF4F019FCAC0
:100DA200E7E0EA93A2E0F6CCE5E0EA93A3E0F2DC26
:100DB200A3E6B1E030CD2FDDE5E0EA93A2E0EADC84
:100DC200E0918102F091820260918302709184022B
:100DD2003BD1FA93EA93A0E6B2E00FDFA0E6B2E0DD
:100DE2000BCDFA93EA93A0E6B2E007CFEA17FB072E
:100DF200680779070895E0918102F091820260917B
:100E02008302709184020895E0E1EA93A2E0C2CCE9
:100E1200B3DCA3E0B0E08AC2A0E399DC80E991E010
:100E22000197F1F70895A6D0A881B9818A819B81A3
:100E32000895E881F9816A817B810895A0E0B0E09C
:100E420080E89FE36BD10895EE81FF816885798503
:100E520008951BDFB9D10ADF13CFAA85BB858C8524
:100E62009D850895E0E0F0E060E070E00895E0E044
:100E7200F0E060E87FE30895E0E0F0E060E07FE327
:100E82000895E885F9856A857B850895A885B985E1
:100E92008A859B850895EC81FD816E817F8108950D
:100EA20032DDAC81BD818E819F818ED1DF01CB018C
:100EB20093CDAD81BE818F8198850895ED83FE83A8
:100EC2006F837887F6CFED81FE816F8178850895F3
:100ED20025D1ED83FE836F8378870895E981FA81B6
:100EE2006B817C810895A981BA818B819C816CD1AF
:100EF20008953A932A931A930A9308953B812A817B
:100F0200198108810895F195E195F0400895F095D1
:100F120060957095E195FF4F6F4F7F4F08950024C4
:100F2200112490E1AA0FBB1F001C111C0E1A1F0AEC
:100F320018F40E0E1F1E01C0A1609A9599F7FD01CB
:100F4200D001089504D0EBDF0EF4DDDF0895E894BC
:100F5200F7FF02C0D8DF6894B7FF06C0B195A1952C
:100F6200B04000F8039400FA08957A936A93FA93D2
:100F7200EA9308959A938A93BA93AA930895182E9E
:100F8200862F612D192E972F712D1B2EBF2FF12D1C
:100F92001A2EAE2FE12D089500240A160B0608061C
:100FA20009060895E991F9916991799177FB660FA4
:100FB200771F88277E57880B7D938C937EE77695E3
:100FC20067956EF00895E991F9916991799177FBAE
:100FD200660F771F7A0F769567950EF00895309712
:100FE2006040704009F070580895552342F450381B
:100FF20011F4E0FF04C03196691F791F6BF050E8CD
:10100200572711F45F93CFC05F3F31F0660F000C9A
:1010120057956795752F08955F9300200AF0CEC00B
:10102200C7C050E8192E1522880F991F9527550F12
:10103200879550E8072E0522660F771F7527550FF3
:1010420067950895689401C0E8945F93F2DF703861
:1010520018F07F3F08F4A7C056E1571BAAF4519538
:1010620058300EF4593030F0EFEFFFEF6FEF7FE7BB
:1010720077F91AC077275523B9F0EE0FFF1F661FC5
:10108200771F5A95D1F710C07727583028F0EF2FE5
:10109200F62F672F5850F9CF552331F07695679583
:1010A200F795E7955A95D1F700200AF430DF5F9162
:1010B2000895689401C0E894309760407040B1F0A0
:1010C200002426F0772312F4009421DF172E7EE10C
:1010D200112032F07A95EE0FFF1F661F111CF9CF17
:1010E200EF2FF62F612D5F938ADF5F9108954F9363
:1010F200AF01FD01DA01AB01BC01CA01402D012C97
:10110200142E4F910895EA0FFB1F681F0895E09572
:10111200F0956095EF5FFF4F6F4F08955F9381DF0A
:10112200903871F150E8152604C05F937ADF903849
:1011320039F1703821F1572F591B2BF112F4D7DFF7
:10114200FACF583118F0AA27BB278827583028F041
:10115200AB2FB82F88275850F9CF552329F0869501
:10116200B795A7955A95D9F7502D512572F0CBDF37
:1011720038F46795F795E795739513F41FC0B7DFB9
:101182003EDF5F910895D8F7FBCFEA1BFB0B680B9C
:1011920051F010F40094BBDF662392F3EE0FFF1FB1
:1011A200661F7A95CBF7EE27FF27BF015F9108955F
:1011B200EFEFFFEF6FE77FEF5F910895EFEFFFEF44
:1011C2006FE77FE75F9108955F932BDF703859F3E4
:1011D200903849F301240894791F23F424F3002062
:1011E2003AF3ECCF0F921F932F933F934F93112714
:1011F20022279927689FA0018F9F302D410D591FEB
:101202006B9F300D411D591F8E9F27D0BF9F25D048
:101212006A9F23D0BE9F1DD0AF9F1BD0AE9F110DE2
:10122200291F391F491F591FE32FF42F652F522FF2
:101232004F913F912F911F910F9066232AF0550FE6
:10124200EE1FFF1F661F02C073954BF2CEDE5F9149
:101252000895100D211D391F02C0200D311D491F97
:10126200591F08955F93DDDE703821F411200AF4CE
:101272009FCFA4CF903809F496CF01240894970BFE
:101282001BF4D4F30020F3CF792F1F932F933F93B6
:101292004F931124112722273327A90190E2AE1779
:1012A200BF078607410730F0AE1BBF0B860B410B11
:1012B200089401C08894551F221F331F111CAA1FB6
:1012C200BB1F881F441F9A9551F7F901612D4F9159
:1012D2003F912F911F91662332F0550FEE1FFF1F92
:1012E200661F7A954BF281DE5F91089599239AF0F9
:1012F200772342F0971748F029F4AE17BF07860705
:1013020020F031F098948894089598940894089560
:101312001894889408957723C2F7971798F3A9F73A
:10132200EA17FB07680788F399F3ECCF109639F0B8
:10133200A89580EA9FE00197F1F71197C9F7089500
:00000001FF
