:100000000C9446000C9400000C9400000C9400002A
:100010000C9400000C9400000C9400000C94000060
:100020000C9400000C9400000C9400000C94000050
:100030000C9400000C9400000C9400000C94000040
:100040000C9400000C9400000C9400000C94000030
:100050000C9400001027E80364000A00010000105F
:100060000001100001000000000001002D4E414E73
:1000700000494E46000080C004000A0066000100EE
:100080007D026A000200810276000000F894EE27EB
:10009000ECBBF1E0FBBFEBBFE5BF8DE0A2E0BB270F
:1000A000ED938A95E9F780E098E0A0E6ED9301975B
:1000B000E9F7E8E7F0E085919591009761F0A59167
:1000C000B59105901590BF01F00105900D92019733
:1000D000E1F7FB01F0CFEFE5EDBFE8E0EEBFC0E6F2
:1000E000D2E00C943A01E1EFEABBE7E8E6B9089503
:1000F00028971A930A938D01E1E0F0E0E017F107E9
:1001000011F4E1E4E7B9E2E0F0E0E017F10711F4FF
:10011000E2E4E7B9E3E0F0E0E017F10711F4E3E42B
:10012000E7B9E7B1AE2FE02FEF70EA2BE7B9369AC7
:10013000349BFECF85E38A95F1F7E4B1F0E00AD174
:10014000EA83FB836C837D83E5B1FE2FE0E002D17F
:1001500006D1EA81FB816C817D81AE81BF8188857A
:10016000998502D1FCD0EE81FF816885798519815E
:1001700008812A9608951A930A938D01AA24BB2414
:10018000D801AED0AE16BF06C0F45D9909C0F1D05B
:10019000F8D0A53FE1E0BE0714F0F8D001C0F5CFDC
:1001A000F501E00FF11FE081ECB9AAE0B0E01ED24A
:1001B000F50131965F013197E3CF099119910895C7
:1001C0005F9910C0D6D0A1E0B0E010D2DAD0A53649
:1001D000E0E0BE0734F0DAD0E5E0F0E06F01EAE0FD
:1001E0000895EECFECB10895EBDF9E2EEAE0E9151D
:1001F00051F0F60131966F013197EC59FD4F908225
:10020000DFDF9E2EF3CFA4E6B2E0AC0DBD1DE0E033
:10021000EC93CC24DD240895A1E0B0E069DFBCD0EC
:10022000C4D073D1DF01CB01EAEAF1EF62E070E400
:1002300099D1A0E6B2E032D1ED93FD936D937C931A
:100240000895B3D0AAE0B0E080E090E0E7D0DF010D
:10025000CB01F2017FD088D09FD0E0916002F09175
:100260006102FA93EA93AAE7B2E046D0AAE7B2E0C5
:1002700082DF0895E0E0E0BDE7E6E9B9E8E1EAB948
:10028000E6E8E0BD30DFE1E0E7BBAEDFA09164026D
:10029000A03321F4C0984424552408C0A0916402DE
:1002A000A13321F4C09AE1E0F0E02F01B49911C02C
:1002B000C09B02C0C09801C0C09AB49BFECFE0E0D2
:1002C000B099E1E0E0936402E0E0B099E1E04E2E05
:1002D0005524A2DFB6DFA8EEB3E088D1D6CFFFCF9A
:1002E000BA93AA93A991B991EE27FF276D9166233E
:1002F00011F03196FBCF0895BA93AA93A991B991C1
:10030000E991F99130962AF4E095F09531966DE2F5
:100310006D93E89480E197E20DD088EE93E00AD0E7
:1003200084E6992707D08AE005D06E2F10D0662783
:100330006C9308956627E817F90720F06395E81B8A
:10034000F90BC9F7662311F416F008956894605DFF
:100350006D9308956F2F660F660B762F0895EE83C9
:10036000FF83688779870895EA0FFB1F681F791F4D
:100370000895A8E7B2E0ED91FD913196FE93EE93DA
:100380000895A0917802B09179020895E0E0E09399
:100390007802E09379020895E0936002F09361029D
:1003A00060936202709363020895E0916002F0919D
:1003B000610260916202709163020895F095609508
:1003C0007095E195FF4F6F4F7F4F0895B0958095E1
:1003D0009095A195BF4F8F4F9F4F08957A9F702D95
:1003E0006B9F700DF89F700DE99F700D6A9F602DD7
:1003F000710DFB9F600D711DE89F600D711D8827B9
:10040000FA9FF02D610D781FEB9FF00D611D781F95
:10041000EA9FE02DF10D681F781F089504D0DEDFFC
:100420000EF4CCDF0895E89477FF02C0C7DF68942C
:1004300097FF04C0CBDF00F8039400FA089555231A
:1004400042F4503811F4E0FF04C03196691F791F5F
:100450006BF050E8572711F45F9373C05F3F31F0A2
:10046000660F000C57956795752F08955F930020D0
:100470000AF072C06BC050E8192E1522880F991F20
:100480009527550F879550E8072E0522660F771F91
:100490007527550F67950895689401C0E8945F9398
:1004A000F2DF703818F07F3F08F44BC056E1571B5D
:1004B000AAF4519558300EF4593030F0EFEFFFEFB9
:1004C0006FEF7FE777F91AC077275523B9F0EE0F62
:1004D000FF1F661F771F5A95D1F710C07727583036
:1004E00028F0EF2FF62F672F5850F9CF552331F012
:1004F00076956795F795E7955A95D1F700200AF418
:100500005DDF5F910895689401C0E8943097604082
:100510007040B1F0002426F0772312F400944EDFEF
:10052000172E7EE1112032F07A95EE0FFF1F661F25
:10053000111CF9CFEF2FF62F612D5F938ADF5F91AA
:100540000895EE27FF27BF015F910895EFEFFFEFBA
:100550006FE77FEF5F910895EFEFFFEF6FE77FE7C2
:100560005F9108955F9387DF703821F411200AF4BA
:10057000EDCFF2CF903809F4E4CF01240894970B23
:100580001BF4D4F30020F3CF792F1F932F933F93C5
:100590004F931124112722273327A90190E2AE1788
:1005A000BF078607410730F0AE1BBF0B860B410B20
:1005B000089401C08894551F221F331F111CAA1FC5
:1005C000BB1F881F441F9A9551F7F901612D4F9168
:1005D0003F912F911F91662332F0550FEE1FFF1FA1
:1005E000661F7A954BF22BDF5F910895109639F0D4
:1005F000A89580EA9FE00197F1F71197C9F7089550
:00000001FF
